:020000040800F2
:100000003807002099010008E71A0008931A000831
:10001000E51A000805060008F11D000800000000B0
:10002000000000000000000000000000EB1A0008C3
:100030000706000800000000E91A0008ED1A000891
:10004000B3010008B3010008B3010008B3010008C0
:10005000B3010008B3010008B3010008B3010008B0
:10006000B3010008B3010008B3010008B3010008A0
:10007000B3010008B3010008B3010008B301000890
:10008000B3010008B301000825050008B30100080A
:10009000B3010008B3010008B3010008B301000870
:1000A000B3010008B3010008B3010008B301000860
:1000B000B3010008B3010008B3010008B301000850
:1000C000B3010008B3010008B3010008B301000840
:1000D000B3010008E51D0008B3010008B3010008E2
:1000E000B3010008B3010008B301000800F002F8F2
:1000F00000F042F80AA090E8000C82448344AAF180
:100100000107DA4501D100F037F8AFF2090EBAE87D
:100110000F0013F0010F18BFFB1A43F0010318473B
:100120001C2200003C220000103A24BF78C878C18D
:10013000FAD8520724BF30C830C144BF04680C60ED
:10014000704700000023002400250026103A28BF35
:1001500078C1FBD8520728BF30C148BF0B60704739
:10016000642900F04D80752900F04A800020704716
:100170001FB51FBD10B510BD00F099F91146FFF76E
:10018000F7FF01F047FE00F0B7F903B4FFF7F2FF05
:1001900003BC00F0BFF90000094880470948004748
:1001A000FEE7FEE7FEE7FEE7FEE7FEE7FEE7FEE727
:1001B000FEE7FEE704480549054A064B7047000084
:1001C000611B0008ED0000083801002038070020FE
:1001D00038030020380300200FB41CB5074B06AAD3
:1001E0007B4469460090059800F049F90020694673
:1001F00000F058F91CBC5DF814FB0000C1020000BF
:100200002DE9F0410646002410687529314616A5EF
:1002100010D0AFF30080002802DA404213A507E0B7
:1002200031688A0701D512A502E0490704D511A556
:10023000012401E0AFF3008000210A2206F1240727
:1002400009E0B0FBF2FCB0FBF2F302FB1C00303023
:1002500078541846491C0028F3D123462A463046D4
:10026000BDE8F04100F0ADB8000000002D00000036
:100270002B000000200000002DE9F0410F4605464C
:10028000002028622846E968884770B3252805D0F1
:10029000D5E901219047286A401CF2E7E968284621
:1002A000002688476C2804460AD0682C08D04C2CBD
:1002B00035D06A2C31D0742C31D07A2C2FD016E066
:1002C000E968064628468847B042044608D16C2EA5
:1002D00023D04FF480662846E9688847044606E044
:1002E0006C2E03D04FF4807601E01EE04026E4B18E
:1002F000A4F14100192802D8203446F400663A4699
:10030000214628462E60FFF72BFF60B1012808D058
:10031000FF1D27F007070837B4E78026DBE7002634
:10032000D9E73F1DAEE72046B2E7286ABDE8F08175
:1003300010B5431C02E010F8011B71B18107FAD11E
:100340004FF0013202C88C1A8C4314EAC211F9D062
:10035000C01A0A0603D0C01E10BDC01A10BD0A0480
:1003600001D0801E10BD0902FCD0401E10BD4FF010
:10037000000200B5134694469646203922BFA0E8F5
:100380000C50A0E80C50B1F12001BFF4F7AF090701
:1003900028BFA0E80C5048BF0CC05DF804EB8900F2
:1003A00028BF40F8042B08BF704748BF20F8022B35
:1003B00011F0804F18BF00F8012B7047704770474D
:1003C00070472DE9F0470D4699469246044600F1E4
:1003D00024080168880604D5E06921F01001216035
:1003E00000E00120A84201DD471B00E00027A169D1
:1003F0007A1902EB0900081AA0612078C00602D41D
:100400002046AFF30080002608E0D4E901211AF865
:1004100006009047206A401C761C20624E45F4DBA3
:100420002078C0060AD52046AFF3008006E0D4E964
:10043000012130209047206A401C2062381EA7F11D
:100440000107F4DC07E0D4E9012118F80500904722
:10045000206A401C2062281EA5F10105F3DC20461D
:10046000AFF300802078000602D50220BDE8F087B7
:100470000120FBE701694A1C02610878704700B55A
:100480008FB0CDE901310021059105497944CDE9CD
:10049000031011466846FFF7EFFE0FB000BD0000E5
:1004A000E5FFFFFF0A6802F8010B0A607047754616
:1004B00000F02CF8AE4605006946534620F00700D0
:1004C000854618B020B5FFF775FEBDE820404FF017
:1004D00000064FF000074FF000084FF0000B21F02E
:1004E0000701AC46ACE8C009ACE8C009ACE8C009FB
:1004F000ACE8C0098D46704710B50446AFF30080E4
:100500002046BDE81040FFF740BE0000004870479D
:10051000D800002001491820ABBEFEE726000200EB
:1005200070470000014800F0F3B800002C000020E4
:1005300070B5044600688168C943C90717D181684E
:1005400021F00101816000F09FFC05460AE000BF38
:1005500000F09AFC401B022804D920688068C04340
:10056000C00706D020688068C043C007F0D00020D4
:1005700070BDA06A40F01000A062E06A40F0010087
:10058000E062012070BD0000F8B500260446009628
:1005900000688168C943C9072DD0816841F0010115
:1005A0008160164816490068B0FBF1F000E0401E7B
:1005B00000900028FBD100F067FC054616E000BF64
:1005C00000F062FC401B022810D920688068C043FC
:1005D000C0070BD0A06A40F01000A062E06A40F0B3
:1005E0000100E06284F824600120F8BD2068806882
:1005F000C043C007E4D10020F8BD0000280000205F
:1006000040420F00FEE7704770470000F8B5002435
:10061000009490F824202546012A12D0012280F867
:1006200024204A681F23072A0DD20668776B521EC2
:1006300002EB820293409F430B6893401F43776312
:1006400019E00220F8BD06680D2A0AD2376BD21FC6
:1006500002EB820293409F430B6893401F43376332
:1006600009E0F76A0D3A02EB820293409F430B6860
:1006700093401F43F7620A68072306680A2A0AD3D1
:10068000F7680A3A02EB420293409F438B6893401B
:100690001F43F76008E0376902EB420293409F4333
:1006A0008B6893401F4337610A68102A01D0112AD2
:1006B00020D1124B02689A4217D193681B0219D4B9
:1006C000936843F4000393600968102912D10C4920
:1006D0000C4A0968B1FBF2F101EB8101490000E02D
:1006E000491E00910029FBD104E0816A41F02001FC
:1006F0008162012480F824502046F8BD0024014086
:100700002800002040420F0070470068C06C70470E
:1007100070B50446006806684568A90625D5B10786
:1007200023D5A16AC90603D4A16A41F40071A1626C
:100730008168C1F34241072910D1217B71B9416819
:1007400021F020014160A06A20F48070A062A06ABC
:10075000C00403D4A06A40F00100A0622046FFF765
:10076000D3FF21686FF01200086028062ED57007AD
:100770002CD5A06AC00603D4A06A40F40050A06241
:1007800020688168C1F30231072909D04168490511
:1007900015D48168C1F34241072910D1217B71B979
:1007A000416821F080014160A06A20F48050A0627D
:1007B000A06AC00503D4A06A40F00100A0622046F0
:1007C000FFF722FF21686FF00C00086068060CD567
:1007D000F0070AD0A06A40F48030A062204600F002
:1007E00093F821686FF00100086070BD2DE9F041B9
:1007F0004FF0000704003D467ED0A06A002628B9CD
:10080000E66284F82460204600F080F82046FFF776
:100810008FFEA16A01F01001014304D0A06A40F0EC
:100820001000A06268E0A16A21F4885141F0020141
:10083000A1626268E169237B0A4347EA43010A43F4
:10084000A1684FF48077B94208D0012906D0002171
:1008500094F814C0BCF1010F02D00AE03946F7E762
:10086000F3B1A36A43F02003A362E36A43F00103F8
:10087000E3622368D3F804C02CF4694C4CEA010C01
:10088000C3F804C023689968DFF870C001EA0C015E
:1008900011439960A168B9420BD0012909D00CE03D
:1008A000DFF85CC0A3690CEB43330B4343F40061F6
:1008B000DFE7218A0D05A5F580152168CB6A23F4B1
:1008C00070032B43CB62216889680E4B194091421B
:1008D00008D1E662A16A21F0020141F00101A162A2
:1008E000BDE8F081A06A20F0020040F01000A06294
:1008F000E06A40F00100E0620120F1E7FDF7E1FF6E
:1009000000E0FFFFFE0E1FFF7047000000B585B03E
:1009100000210091019102910391006812498842DF
:1009200020D11248816941F400718161816901F42B
:1009300000710491816941F0040181618069694617
:1009400000F004000490202000900320019008484B
:1009500000F0AAF900221146122000F001FB12203B
:1009600000F0F0FA05B000BD002401400010024084
:10097000000801402DE9F84300270D460446009782
:1009800000F082FA804620688168C90508D5A06A0F
:1009900040F02000A06284F824700120BDE8F883B4
:1009A0004168C90503D4C06A10F4700F2AD0022030
:1009B00000F008FB3B490968B1FBF0F620680369C9
:1009C00039490B424FEA61014FEAA1121FD1C368B6
:1009D0004FEA611C13EA0C0F19D103690B4225D1B0
:1009E000C068104222D1142023E0681C0AD02DB127
:1009F00000F04AFAA0EB0800A84203D9206800687A
:100A0000800725D5206800688007EED52DE00369B2
:100A10000B4202D1C168114206D0026923490A4241
:100A200006D1C068084203D1542002E0292000E02A
:100A3000FC204643009816E0681C11D02DB100F050
:100A400023FAA0EB0800A8420AD90098B04207D2C6
:100A5000A06A40F00400A06284F8247003209DE79F
:100A60000098401C0090B042E6D321686FF012005D
:100A70000860A06A40F40070A06220688068C0F33B
:100A8000424007280CD1207B50B9A06A20F4807026
:100A9000A062A06AC00403D4A06A40F00100A06272
:100AA00000207BE72800002024499224499224005A
:100AB00070B5044690F8240001280DD0012084F878
:100AC00024002046FFF760FD02004FF0000005D033
:100AD00084F82400104670BD022070BDA16A40F267
:100AE0000123994341F48071A1621F4D23681F497E
:100AF000AB4218D10E6816F4702F14D0A66A46F4D3
:100B00008016A6620E68760505D5A66A26F40056FC
:100B100046F48056A662A66AF6040AD5E66A26F06E
:100B20000606E66206E0A66A26F48016A6625E68FD
:100B3000E9E7E06284F824006FF0020018602068A2
:100B40008368C3F34243072B05D1A84208D1096843
:100B500011F4702F04D0816841F480118160B9E7ED
:100B6000816841F4A001F9E7002801400424014014
:100B700010B5044690F82400012807D0012084F81D
:100B800024002046FFF7D4FC10B107E0022010BD7E
:100B9000A16A21F4885141F00101A162002184F889
:100BA000241010BD10B590F821100022022905D0A4
:100BB0000421816380F82020012010BD01680B68AA
:100BC00023F00E030B6001680B6823F001030B6038
:100BD00090F84030C46B012101FA03F3636080F8A0
:100BE000211080F82020104610BD000010B590F8AC
:100BF00021100024022903D00421816301243DE057
:100C000001680A6822F00E020A6001680A6822F090
:100C100001020A601A4A0168914201D1012121E0D2
:100C2000174A1432914201D110211BE0144A283294
:100C3000914201D1891515E0114A3C32914201D10E
:100C400089140FE00E4A5032914202D14FF48031A4
:100C500008E00B4A6432914202D14FF4801101E066
:100C60004FF08071064A083A5160012180F8211046
:100C7000002180F82010416B01B18847204610BD4B
:100C80000800024070B5044600F0FEF80546601CFE
:100C900002D004480078044400F0F6F8401BA0425B
:100CA000FAD370BD1C0000202DE9F84FDFF8B89191
:100CB0000024A9F1040B23460F2709F1040AABF124
:100CC000040EC9E00125A5402A40AA427DD1674E05
:100CD000D1F804C0ACEB0608B44532D014DCBCF14A
:100CE000030F3AD009DCBCF1000F2AD0BCF1010F90
:100CF0001CD0BCF1020F31D11DE0BCF1110F17D097
:100D0000BCF1120F2AD119E0B8F5881F19D006DC02
:100D1000B8F5803F15D0B8F5801F1FD111E0B8F5A8
:100D2000001F0ED0B8F5041F18D10AE0CB6815E0FB
:100D3000CB681B1D12E0CB6808330FE0CB680C3387
:100D40000CE08B682BB1012B4FF0080303D04561F9
:100D500004E0042302E0056100E00023FF2A01D83B
:100D6000064601E000F104064FEA840501D9A5F129
:100D70002005D6F8008007FA05FC28EA0C0803FADB
:100D800005F548EA0508C6F800804D68ED0062D513
:100D9000374DAE6946F00106AE61AD6924F0030639
:100DA00005F001050095334D06EB050CDCF8085005
:100DB000A607360F07FA06F825EA0805DFF8B88017
:100DC000404503D14FF0000817E044E0DFF8AC8065
:100DD000404502D14FF001080FE0DFF8A480404504
:100DE00002D14FF0020808E0DFF89880404502D1B8
:100DF0004FF0030801E04FF0040808FA06F848EA4B
:100E00000508CCF808804D68D9F80060ED024D4621
:100E100001D5164300E096432E604D68DAF8006075
:100E2000AD02554601D5164300E096432E604D684D
:100E3000DBF80060AD035D4601D5164300E0964344
:100E40002E604D68DEF80060ED03754601D516434F
:100E500000E096432E60641C0D682A46E5407FF44E
:100E600031AFBDE8F88F0000080401400000111008
:100E7000001002400000014000080140000C014049
:100E800000100140001401400148806870470000D4
:100E90001C0000200248816802781144816070477C
:100EA0001C000020074810B5016841F010010160E6
:100EB000032000F075F80F2000F006F800F024F889
:100EC000002010BD0020024070B50D4D04464FF4C7
:100ED0007A712878B1FBF0F00A490968B1FBF0F0AB
:100EE00000F0A4FB48B9102C07D200222146501E66
:100EF00000F036F800206C6070BD012070BD00006D
:100F00001C000020280000200C4808B5816941F031
:100F100001018161816901F001010091C16941F024
:100F20008051C161C06900F0805000900448416860
:100F300021F0E06141F00071416008BD0010024005
:100F400000000140002809DB00F01F020121914050
:100F50004009800000F1E020C0F800117047000057
:100F6000F0B40E4B1B680C46C3F30223C3F1070514
:100F7000042D00D90425191D072901D2002300E002
:100F8000DB1E012606FA05F1491E214099409E40CC
:100F9000761E16403143F0BC00F02BBF0CED00E094
:100FA000064900F0070208684FF6FF03184040EAC0
:100FB0000220034A10430860704700000CED00E077
:100FC0000000FA0510B501460020234C012922D06B
:100FD000022939D010291DD161682268D20119D5A2
:100FE0001E48C1F38342C903805C0AD561681B4A6D
:100FF000C1F34041921E515C194AB2FBF1F14843E2
:1010000001E0184948436168490203D440000321C4
:10101000B0FBF1F010BD226AC2F30121012903D116
:10102000920701D5C80310BD022905D1626A920753
:1010300002D549F6404010BD0329FCD1216889033F
:10104000F9D54FF2244010BD00F02AF96168C1F3D0
:101050008131491C4900DBE70010024014230008DD
:1010600000127A0000093D002DE9F843054600789A
:10107000354CC00754D0E0690026C00008D4E069B0
:1010800040F08050E061E069012600F0805000905F
:101090002E480168C90512D40168804641F4807168
:1010A0000160FFF7F1FE074605E000BFFFF7ECFE29
:1010B000C01B642823D8D8F80000C005F6D5206AE4
:1010C00010F4407021D0A98801F4407181421CD0F5
:1010D000206A1F49012220F440700A6000220A6041
:1010E0002062C00711D0FFF7CFFE074641F28838D3
:1010F00008E000BFFFF7C8FEC11B414502D903202D
:10110000BDE8F883206A8007F4D5206A696820F476
:101110004070084320621EB1E06920F08050E06119
:101120002878800705D56068A96820F44040084306
:1011300060602878C00605D56068E96820F4800002
:10114000084360600020DBE70010024000700040B0
:10115000400442422DE9F0470F46050061D0434E5E
:10116000306800F00700B84209D2306820F007006C
:1011700038433060306800F00700B84251D1286829
:101180003B4C810712D5400703D5606840F4E0600E
:1011900060602878000703D5606840F460506060A4
:1011A0006068A96820F0F000084360602878C007F4
:1011B00028D06868012810D02168022810D089073B
:1011C00000292EDA616821F0030101436160FFF715
:1011D0005BFE804641F288390DE021688903EFE724
:1011E0008901EDE7FFF750FEA0EB0801494502D960
:1011F0000320BDE8F0876068696800F00C00B0EB80
:10120000810FEFD1306800F00700B8420BD9306889
:1012100020F0070038433060306800F00700B84223
:1012200001D00120E5E72878400705D56068E96826
:1012300020F4E060084360602878000706D5606805
:10124000296920F4605040EAC100606000F038F87D
:101250006168084AC1F30311515CC840064908603F
:1012600006480068FFF730FE0020C2E70020024079
:101270000010024024230008280000202000002045
:101280000448054900684968044AC1F30221515CD9
:10129000C840704728000020001002403423000896
:1012A0000448054900684968044AC1F3C221515CF9
:1012B000C840704728000020001002403423000876
:1012C0000E4A51680E4801F00C03042B11D0082B74
:1012D0000FD10C48C1F38343C903C05C0AD55168E0
:1012E000084AC1F34041921E515C054A5043B0FB8D
:1012F000F1F0704704494843704700000010024075
:1013000000127A000223000800093D002DE9F84F81
:10131000040070D02078C04DC00749D06868C0F381
:101320008100012807D06868C0F38100022809D134
:101330006868C00306D52868800339D5606800282E
:10134000E7D035E06068B0F5803F0BD010B1B0F564
:10135000A02F11D0286820F480302860286820F45D
:10136000802002E0286840F480302860606890B1F6
:10137000FFF78AFD06460AE0286840F480202860CE
:10138000F0E700BFFFF780FD801B642873D8286852
:101390008003F7D50CE0FFF777FD064605E000BFB8
:1013A000FFF772FD801B6428F0D828688003F7D40B
:1013B00020789A4E80074FF001094FF0000839D588
:1013C000686810F00C0F07D06868C0F3810002282D
:1013D00009D16868C00306D42868800714D520693D
:1013E000012808D110E02069B0B1C6F80090FFF7DD
:1013F0004BFD074605E00AE1FFF746FDC01B02284A
:10140000C4D828688007F7D52868616920F0F800FB
:1014100040EAC10028600DE0C6F80080FFF734FD07
:10142000074604E0FFF730FDC01B022823D82868D8
:101430008007F7D4207800072CD57948A169D9B165
:10144000C0F80090FFF720FD074604E0FFF71CFD01
:10145000C01B02280FD8686A8007F7D571484FF47F
:10146000FA510068B0FBF1F0009000BF0098411EF7
:101470000091FAD20EE080E0C0F80080FFF704FD92
:10148000074604E0FFF700FDC01B022875D8686A14
:101490008007F7D42078400760D5E8690027C000AE
:1014A00008D4E86940F08050E861E869012700F05D
:1014B000805000905C480168C90513D401688346D8
:1014C00041F480710160FFF7DFFC824606E000BF57
:1014D000FFF7DAFCA0EB0A0064284ED8DBF8000026
:1014E000C005F5D5E06801280AD008B1052813D059
:1014F000286A20F001002862286A20F0040002E037
:10150000286A40F001002862E06841F2883B98B107
:10151000FFF7BAFC82460BE0286A40F0040028621C
:10152000EEE700BFFFF7B0FCA0EB0A0159455AD81F
:10153000286A8007F6D50CE0FFF7A6FC824605E096
:10154000FFF7A2FCA0EB0A0159454CD8286A800796
:10155000F6D41FB1E86920F08050E861E06988B3F3
:101560006968C1F38101022944D00228C6F860806D
:1015700004D0FFF789FC044638E034E0FFF784FC30
:10158000074604E0FFF780FCC01B02282BD8286820
:101590008001F7D4206AB0F5803F05D16868A16862
:1015A00020F4003008436860D4E908010843696802
:1015B00021F4741108436860C6F86090FFF764FC7A
:1015C000044606E025E000BFFFF75EFC001B022892
:1015D00009D828688001F7D51BE000BFFFF754FC4D
:1015E000001B022802D90320BDE8F88F286880017B
:1015F000F4D40EE00128F7D06868226A00F4803144
:10160000914204D1616A00F47010884201D0012037
:10161000EAE70020E8E70000001002400000424234
:1016200080044242280000200070004010B5401E97
:10163000B0F1807F01D3012010BD4FF0E024606144
:101640000F21601700F0D5FB0020A061072020616A
:10165000002010BD70477047F8B50168044608685F
:10166000CA684B6910F00F0F4FF000055AD003F015
:10167000010602F49077374365D0C10705D0D10544
:1016800003D5616C41F001016164410705D5D907BB
:1016900003D0616C41F002016164810705D5D9076F
:1016A00003D0616C41F004016164010707D502F0C9
:1016B0002001314303D0616C41F008016164616C29
:1016C00000293BD0800604D5900602D5204600F0C4
:1016D00077FA20684069616CC0F3801001F008015E
:1016E000014320462BD000F044FA206840694006B0
:1016F00021D52068143050E8001F21F0400140E857
:101700000012002AF5D1E06BA8B16D494163E06B8E
:10171000FFF76CFA002811D0E06B416B01B0BDE817
:10172000F040084783060ED593060CD52046BDE849
:10173000F84000F045BA2046FFF78DFFF8BDFFF7EF
:101740008AFF6564F8BD266B2023012E7CD1C60676
:101750007AD5D60678D508684868009048694FF071
:101760000206400640D5E16B086840680004000CA2
:10177000E8D0A28D8242E5D9E085886920282DD065
:1017800020680C3050E8001F21F4807140E80012FE
:10179000002AF5D12168143151E8000F20F0010032
:1017A00041E80002002AF5D12068143050E8001FFB
:1017B00021F0400140E80012002AF5D184F84230BF
:1017C000256320680C3050E8001F21F0100140E82C
:1017D0000012002AF5D1E06BFFF7E4F96663A08DF3
:1017E000E18D401A81B22AE0A08DE18D401A81B2CC
:1017F000E08D0028A6D00029A4D022680C3252E83F
:10180000000F20F4907042E80007002FF5D1206807
:10181000143050E8002F22F0010240E80027002F8A
:10182000F5D184F84230256320680C3050E8002F51
:1018300022F0100240E80023002BF5D16663204619
:10184000FFF708FFF8BDFFE705062BD5150629D5DC
:1018500094F841002128F5D1A068B0F5805F01D14E
:101860002069B0B1206A411C21622168007848607B
:10187000E08C401E0004000CE084E3D12068C168C5
:1018800021F08001C1602068C16841F04001C16061
:10189000D8E7206A0088C0F308004860206A801CEE
:1018A0002062E5E74006CDD55006CBD5CA68204674
:1018B00022F04002CA6084F8413000F0E9F8C1E744
:1018C000631B000870B5040004D094F841000025A3
:1018D00010B106E0012070BD84F84050204600F0B1
:1018E00023F8242084F841002068C16821F40051C5
:1018F000C160204600F0C6F92068016921F49041DA
:1019000001612068416921F02A0141612068C168B4
:1019100041F40051C1606564202084F8410084F8DE
:1019200042006563002070BD30B585B0002400948E
:101930000194029403940068184988422CD11848F5
:10194000816941F480418161816901F480410491A0
:10195000816941F0040181618069124D00F0040049
:1019600004904FF400700090022001900320039037
:1019700069462846FFF798F92815CDE9000469461D
:1019800028460294FFF790F9002211462520FFF720
:10199000E7FA2520FFF7D6FA05B030BD0038014040
:1019A000001002400008014090F84230202B01D086
:1019B0000220704721B11AB10023036300F0BEB9C1
:1019C000012070470068074988420AD1064801781B
:1019D000312901D141694160012203490348FFF7E0
:1019E000E3BF704700380140000000205C00002089
:1019F0002DE9F843044690F84100984616460D46F6
:101A0000202802D00220BDE8F88385B17EB10020F5
:101A10006064212084F84100FFF736FAA6848146ED
:101A2000E684A0682027B0F5805F02D003E00120A3
:101A3000E9E7206910B12E4600250EE000260CE0F3
:101A40008021204600F095F9A8B9C6B116F8010B1F
:101A500021684860E08C401EE084E08C4B464FF0EB
:101A60000002CDF800800028EAD14FF04001204666
:101A700000F07FF940B184F841700320C3E735F8E6
:101A8000020BC0F30800E3E784F841700020BAE7D6
:101A90007047FEE73EB5002411480094019402947B
:101AA0000E498460016004730475012505614FF4DB
:101AB00060214460C161FEF799FE08B172B6FEE78D
:101AC0000520CDE90005694602940548FEF79EFD14
:101AD000002801D072B6FEE73EBD000000240140A0
:101AE0002C000020FEE7FEE770477047FFF7D2B9F1
:101AF00030B593B028216846FEF739FC14210AA8B6
:101B0000FEF735FC002401200F9402250490009577
:101B10001020119405901094129407946846FFF7D2
:101B2000F5FB08B172B6FEE70F20CDE90A044FF4C9
:101B30008060CDE90C4000210AA80E94FFF70AFB53
:101B400008B172B6FEE74FF4004011900F950FA850
:101B5000FFF78AFA002801D072B6FEE713B030BD55
:101B6000704710B5406A0021C185C184FFF773FD3D
:101B700010BD01680C3151E8002F22F4907241E849
:101B80000023002BF5D10168143151E8002F22F019
:101B9000010241E80023002BF5D1016B012909D195
:101BA00001680C3151E8002F22F0100241E80023B7
:101BB000002BF5D1202180F84210002101637047ED
:101BC00008B590F84210222901D0022008BD826891
:101BD0004FF480539A4201D1016921B1816A9A423E
:101BE0001BD04AB10AE00268816A5268C2F3080257
:101BF0000A80816A891C08E0026972B10268526831
:101C000002F07F020A70816A491C8162C18D491EFF
:101C10000904090CC18503D01BE002685268F1E792
:101C20000168CA6822F02002CA600168CA6822F40A
:101C30008072CA6001684A6922F001024A6120216B
:101C400080F8421000214163026B012A03D0FFF7A4
:101C5000B9FE002008BD016301680C3151E8002F76
:101C600022F0100241E80023002BF5D101680A6838
:101C7000D20602D50A6849680091818DFFF7EAFC17
:101C8000E7E7000070B5044600680169E26821F4E6
:101C90004051114301612169A0680843616908430B
:101CA0002168CA6841F20C639A430243CA60206803
:101CB0004169A26921F44071114341611E492068C4
:101CC000884202D1FFF7ECFA01E0FFF7D9FA00EB06
:101CD000C00101EB0012606864218000B2FBF0F3E8
:101CE000B3FBF1F36FF018067343B2FBF0F5B2FBF0
:101CF000F0F605EB8305322303EB0515B5FBF1F593
:101D0000B6FBF1F605F0F00505EB0615B2FBF0F6B3
:101D1000B2FBF0F0B0FBF1F06FF01802504306EBAD
:101D2000800003EB0010B0FBF1F0216800F00F0021
:101D30002844886070BD00000038014081628285BF
:101D4000C28500214164222180F84210016921B13D
:101D50000168CA6842F48072CA6001684A6942F048
:101D600001024A610068C16841F02001C1600020A1
:101D700070472DE9F843984617460D460446089EDD
:101D800024E0701C22D0FFF77FF8A0EB0800B042DF
:101D90001AD8CEB12068C168490717D5802D15D053
:101DA000402D13D00168C94309070FD401680025ED
:101DB000406800902046FFF7DCFE0820606484F84D
:101DC00040500120BDE8F8830320FBE7206800684D
:101DD00035EA000004D00020B842D2D00020F1E75C
:101DE0000120F9E70148FFF737BC00005C00002044
:101DF000FEE70907090E002804DB00F1E02080F867
:101E00000014704700F00F0000F1E02080F8141D6E
:101E10007047000086B0FFF745F8FFF769FE002421
:101E2000304801940394816941F020018161816906
:101E300001F020010491816941F004018161806910
:101E4000694600F0040004904FF400600090022006
:101E500002902548FEF728FFFFF71CFE244823497F
:101E600001604FF4E131C0E901140C21C460C0E904
:101E700004418461C461FFF725FD08B172B6FEE735
:101E800001221C491A48FFF78FFD1A4C00F052F846
:101E9000A0613220FEF7F6FE154817A14830A2696E
:101EA000FEF79AF912484830FEF742FA104982B21A
:101EB000642348310E48FFF79BFD0D4810A14830C0
:101EC0006269FEF789F90A484830FEF731FA084995
:101ED00082B2642348310648FFF78AFD6420FEF78A
:101EE000D1FED3E700100240000801400038014055
:101EF0005C00002000000020573A25640D0A000015
:101F0000413A256C750D0A0010B50848FEF7D0FD62
:101F10000A210648FEF72EFD0448FEF7F6FB044CA6
:101F200020610248FEF724FE206910BD2C0000202D
:101F30000000002070B50025C8262C46FFF7E4FFFE
:101F400005440120FEF79EFE641CA4B2B442F5D302
:101F5000B5FBF6F5084C6561D4E9020100F00EF816
:101F600006466068281A00F0E7F8314600F0FCF8F1
:101F7000BDE8704000F0C4B8000000204FF47F0CB2
:101F80001CEAD0121EBF1CEAD11392EA0C0F93EA8E
:101F90000C0F00F0858090EA010F48BF42F4807278
:101FA00040F4000C41F400002CF07F4120F07F4011
:101FB00000B58142A2EB03020FF2081CACEB504EBD
:101FC000C0F100009EF800E04FEA4E0E00FB0EFC50
:101FD00038BF49004FEA2C1C02F5FA020CFB0EF345
:101FE0004FEACE1E4FEA112C4FEAC1210EEB635E81
:101FF00042EB22420EFB0CFC4FEA1C5300FB031188
:102000004FEA112C4FEA01310EFB0CFC4FEADC4C7D
:1020100000FB0C11C14228BF09184CEB03335DF8DB
:1020200004EB10EB410143EBC250B2F57C0F38BF1B
:10203000704729D512F0F00F1CBF00F1C04000F02E
:1020400000407047008182838485868788898B8CD5
:102050008D8E8F919293959697999A9C9D9FA0A211
:10206000A3A5A7A8AAACAEB0B2B3B5B7B9BCBEC061
:10207000C2C5C7C9CCCED1D4D7D9DCDFE2E6E9EC02
:10208000F0F3F7FAFE0000004FEA400C0CF1807C00
:10209000BCF17E4F28BF7047B0F1C04000F02BB9B3
:1020A00090EA010F0CEAD11348BF42F480726245F6
:1020B00038BF634507D213F47F0F16D080EA0100C2
:1020C00000F00040704710B500F0CFF8097EFC3EEC
:1020D00000F005B880EA010000F00040704780EA97
:1020E000010000F0004000F006B912F47F0F04BFB9
:1020F0000248704780EA010000F0FDB80000C07F90
:1021000041000B0ED3F19E0208D950F400034FEAB0
:10211000032323FA02F048BF4042704710B500F095
:10212000A4F800BF49922480002070476FF000425D
:1021300082EA20007047000010F0004148BF404292
:10214000B0FA80F310FA03F2C3F19D030BD051EA09
:10215000C35101EB1220530638BF704700F1010054
:1021600008BF20F0010070474FF47F0C1CEAD0122A
:102170001EBF1CEAD11392EA0C0F93EA0C0F00F079
:10218000478090EA010F48BF42F480724FF0004C44
:102190004CEA00204CEA012102EB0302A0FB0113F0
:1021A000A2F50002002918BF43F001035B0028BF1D
:1021B0004FEA330342EB22425FEA132C4CEBC2504E
:1021C0002EBFBCEB436FB2F57C0F70474FEA036C38
:1021D000BCF1004F08BF20F00100B2F57C0F38BF02
:1021E00070470BD582F0FF0212F5803FC8BF7047E1
:1021F00000F1C040D8BF00F00040704700F5000C6F
:102200005FEA4C0C48BF7047B0F1C04000F073B8B3
:1022100090EA010F0CEAD11348BF42F48072624584
:1022200038BF634504D280EA010000F000407047E7
:1022300010B500F01AF800BF8900013E00F007B8A1
:1022400000F009B85FEA410C5FEA1C6C08D080EA34
:10225000010000F050B85FEA400C5FEA1C6CF6D158
:102260004FF00040A0F5800070470EF1020E2EF0F6
:10227000030E5EF8044B244204D44FEA4102B2F14B
:102280007F4F11D84FEA4003B3F17F4F0CD80ED1E6
:102290004FEAD07CB2F17F4F0CEB4C0C0CF1020CEE
:1022A00008BF4CEBD17C04E04FF0080C01E04FEA92
:1022B000D17C0CEB4C0324FA03F404F00704B4F1D2
:1022C000040C06D20EEB840CBDE810404CF0010C5F
:1022D0006047DFE80CF0070802024FF00040A0F56D
:1022E000800010BD0846420018BFD2F1807288BF3E
:1022F00000F0004010BDFF2141EAD050C0057047FA
:10230000010202030405060708090A0B0C0D0E0F53
:102310001010010202030405060708090A0B0C0D40
:102320000E0F101000000000000000000102030466
:102330000607080900000000010203045C230008EE
:10234000000000202C00000028010008882300085D
:102350002C0000200C0700004401000800000000D1
:10236000000000000000C4420000604100000000C6
:10237000000000000000000001000000100000004C
:082380000000000000127A00C9
:04000005080000ED02
:00000001FF
